:100000000C9463000C94D2050C94AB050C9451062F
:100010000C9451060C9451060C948B000C948B009C
:100020000C948B000C948B000C948B000C948B0024
:100030000C948B000C948B000C948B000C948B0014
:100040000C9461050C948B000C941F060C94F9051C
:100050000C948B000C948B000C948B000C948B00F4
:100060000C948B000C948B000000000024002700EF
:100070002A0000000008000201000003040700003D
:1000800000000000000000000000230026002900FE
:1000900000000000250028002B00040404040404D0
:1000A0000404020202020202030303030303010227
:1000B00004081020408001020408102001020408F6
:1000C00010200E072A0B11241FBECFEFD8E0DEBF91
:1000D000CDBF22E0A6ECB1E001C01D92A83FB2075F
:1000E000E1F711E0A0E0B1E0E6E5FFE102C0059034
:1000F0000D92A63CB107D9F710E0C2E6D0E004C0EB
:100100002197FE010E94A60DC136D107C9F70E94B2
:10011000F4070C949E0F0C94000090E0FC01EE5844
:10012000FF4F2491FC01E255FF4F3491FC01E6564C
:10013000FF4FE491EE23C9F0222339F0233001F17F
:10014000A8F4213019F1223029F1F0E0EE0FFF1F61
:10015000E057FF4FA591B4918FB7F894EC916111DE
:1001600026C030953E233C938FBF08952730A9F0D9
:100170002830C9F0243049F7809180008F7D03C07A
:10018000809180008F7780938000DFCF84B58F7758
:1001900084BDDBCF84B58F7DFBCF8091B0008F779E
:1001A0008093B000D2CF8091B0008F7DF9CF3E2BED
:1001B000DACFCF93DF9390E0FC01E255FF4F24911B
:1001C00086569F4FFC0184918823D1F090E0880FE0
:1001D000991FFC01E859FF4FA591B491FC01E0572C
:1001E000FF4FC591D49161110EC09FB7F8948C91C7
:1001F000E22FE0958E238C932881E223E8839FBF32
:10020000DF91CF9108958FB7F894EC91E22BEC93A6
:100210008FBFF6CF3FB7F8948091160290911702E6
:10022000A0911802B091190226B5A89B05C02F3FD6
:1002300019F00196A11DB11D3FBFBA2FA92F982F0C
:100240008827BC01CD01620F711D811D911D42E007
:10025000660F771F881F991F4A95D1F708958F92CF
:100260009F92AF92BF92CF92DF92EF92FF924B019B
:100270005C010E940A016B017C010E940A016C1959
:100280007D098E099F09683E734081059105A8F399
:1002900021E0821A9108A108B10888EEC80E83E017
:1002A000D81EE11CF11C81149104A104B10429F7AA
:1002B000FF90EF90DF90CF90BF90AF909F908F9086
:1002C00008950895AF92BF92CF92DF92EF92FF927E
:1002D0000F931F93CF93DF936C017B018B01040F6E
:1002E000151FEB015E01AE18BF08C017D10759F00A
:1002F0006991D601ED91FC910190F081E02DC6014C
:100300000995892B79F7C501DF91CF911F910F9145
:10031000FF90EF90DF90CF90BF90AF900895FC01D9
:10032000538D448D252F30E0842F90E0821B930B5A
:10033000541710F0CF96089501970895FC01918D00
:10034000828D981761F0A28DAE0FBF2FB11D5D9603
:100350008C91928D9F5F9F73928F90E008958FEFA5
:100360009FEF0895FC01918D828D981731F0828D59
:10037000E80FF11D858D90E008958FEF9FEF0895B0
:10038000FC01918D228D892F90E0805C9F4F821B14
:1003900091098F73992708958AE192E00E94C00124
:1003A00021E0892B09F420E0822F089580E090E07D
:1003B000892B29F00E94CC0181110C940000089532
:1003C000FC01A48DA80FB92FB11DA35ABF4F2C91CA
:1003D000848D90E001968F739927848FA689B789C1
:1003E0002C93A089B1898C91837080648C93938DB8
:1003F000848D981306C00288F389E02D80818F7D5B
:1004000080830895EF92FF920F931F93CF93DF9312
:10041000EC0181E0888F9B8D8C8D98131AC0E88940
:10042000F989808185FF15C09FB7F894EE89FF890F
:100430006083E889F98980818370806480839FBFAD
:1004400081E090E0DF91CF911F910F91FF90EF90AD
:100450000895F62E0B8D10E00F5F1F4F0F731127BD
:10046000E02E8C8D8E110CC00FB607FCFACFE889F8
:10047000F989808185FFF5CFCE010E94E001F1CF9F
:10048000EB8DEC0FFD2FF11DE35AFF4FF0829FB76C
:10049000F8940B8FEA89FB8980818062CFCFCF935C
:1004A000DF93EC01888D8823B9F0AA89BB89E8899C
:1004B000F9898C9185FD03C0808186FD0DC00FB642
:1004C00007FCF7CF8C9185FFF2CF808185FFEDCFC0
:1004D000CE010E94E001E9CFDF91CF9108952091F4
:1004E0000802309109022817390771F49091060229
:1004F00080910702981741F0E0910602F0E0EA537C
:10050000FE4F808190E008958FEF9FEF089508954A
:10051000EF92FF920F931F93CF93DF93DC015C96D2
:10052000ED90FC905D97E114F10479F481E090E0A6
:1005300013969C938E93129790E080E0DF91CF9179
:100540001F910F91FF90EF9008955196ED91FC91BE
:10055000529750968C915097982F90950FB75E9622
:100560002C915E97122F127021FD6095F8942081D6
:10057000112319F1282B2083E7012197F1F728E0B7
:10058000462F50E0308160FF1AC0382B3083E701DE
:100590002197F1F7BA0175956795215089F71123D5
:1005A00081F08081892380830FBF5C968D919C911F
:1005B0000197F1F781E090E0C1CF2923DCCF392307
:1005C000E5CF9081892BEFCF20910802309109026D
:1005D0002817390761F4809107022091060290E004
:1005E000805C9F4F821B91098F739927089590E03B
:1005F00080E00895209108023091090228173907F8
:10060000B9F49091060280910702981789F0E09161
:100610000602F0E0EA53FE4F80812091060230E0AE
:100620002F5F3F4F2F7333272093060290E00895EA
:100630008FEF9FEF0895089590E080E00895CF93A5
:10064000DF93EC0160E08E810E948D0061E08E817D
:100650000E948D0060E08E810E948D008BE891E009
:100660000197F1F7DF91CF910895CF92DF92EF924A
:10067000FF920F931F93CF93DF936C017C0187E070
:10068000E80EF11CD0E0C0E0062F10E0B8010C2EFF
:1006900002C0759567950A94E2F76170F701819140
:1006A0007F010E948D002196C430D10579F7C601E3
:1006B000DF91CF911F910F91FF90EF90DF90CF903E
:1006C0000C941F03CF92DF92EF92FF920F931F9330
:1006D000CF93DF93EC01F62E642F8C810E948D0066
:1006E0008D818F3F19F060E00E948D000F2D10E08A
:1006F0008F8584FF25C06E0187E0C80ED11CF12CC8
:10070000E12CB8010E2C02C0759567950A94E2F7AA
:100710006170F60181916F010E948D00FFEFEF1A69
:10072000FF0A88E0E816F10461F7CE01DF91CF916E
:100730001F910F91FF90EF90DF90CF900C941F03CB
:10074000B80184E0759567958A95E1F7CE010E941E
:1007500035036F2DCE01DF91CF911F910F91FF9047
:10076000EF90DF90CF900C94350340E0682F87EB3B
:1007700092E00C946203CF93DF93823029F490913E
:10078000C60298609093C6028093CA021092CB0270
:1007900080E48093CC0280E18093CD0280E5809359
:1007A000CE0261E08091BB020E94D9008091BC0220
:1007B0008F3F19F061E00E94D90061E08091BD0295
:1007C0000E94D900C7EBD2E09E01275B32408091A6
:1007D000C60284FD0BC084E090E0219628173907FB
:1007E00044F461E08E810E94D900EECF88E090E071
:1007F000F4CF8BE39DE00197F1F760E08091BB02BD
:100800000E948D0060E08091BD020E948D00809169
:10081000BC028F3F19F060E00E948D008091C602FB
:1008200084FD39C063E087EB92E00E943503CBE49E
:10083000D6E4CE010197F1F763E087EB92E00E94E6
:1008400035032197F1F763E087EB92E00E943503CF
:1008500083E592E00197F1F762E087EB92E00E9476
:1008600035038091C60280620E94B50384E08093C4
:10087000C7028CE00E94B50381E00E94B5038BE3C0
:100880009FE10197F1F782E08093C80286E0DF9153
:10089000CF910C94B50380620E94B5038BE496E47B
:1008A0000197F1F78091C60280620E94B50383E54B
:1008B00092E00197F1F78091C60280620E94B50331
:1008C000D0CF9091CA02891710F08FEF890FE82FCF
:1008D000F0E0E954FD4F848980680C94B503CF9310
:1008E000DF93EC01862F0E9461044C815D81688159
:1008F000798187EB92E0DF91CF910C94620141E026
:100900000E94620381E090E00895FB0101900020C5
:10091000E9F73197AF01461B570BDC01ED91FC91D4
:100920000280F381E02D09946AE371E08AE192E0AC
:100930000E94850460E671E08AE192E00E948504ED
:1009400081E0809310020895FC01808191810097DD
:1009500011F00C94480E08950F931F93CF93DF93DB
:10096000EC0188819981009759F02A813B812617F3
:10097000370730F081E0DF91CF911F910F910895FB
:100980008B016F5F7F4F0E94D10E009759F09983C2
:1009900088831B830A832C813D81232B59F7FC011B
:1009A0001082E8CF80E0E7CFEF92FF920F931F9382
:1009B000CF93DF936115710541F480E0DF91CF9112
:1009C0001F910F91FF90EF90089541155105B1F0DF
:1009D0007B01EC010C811D81040F151FB8010E94E1
:1009E000AC04882351F3288139818C819D81B70122
:1009F000820F931F0E94970F1D830C8381E0DECF2F
:100A0000CF93DF93EC0142E050E063E671E00E9497
:100A1000D40481110CC088819981009711F00E9443
:100A2000480E198218821D821C821B821A82CE01F6
:100A3000DF91CF910895EF92FF920F931F93CF9381
:100A4000DF93EC017B018A01BA010E94AC0428818A
:100A50003981811114C02115310519F0C9010E9495
:100A6000480E198218821D821C821B821A82CE01B6
:100A7000DF91CF911F910F91FF90EF9008951D830B
:100A80000C83B701C9010E94970FF1CFFB010190C0
:100A90000020E9F73197AF01461B570B0C941B055B
:100AA000FC01118210821382128215821482FB01D2
:100AB00001900020E9F73197AF01461B570B0C94CA
:100AC0001B051F920F920FB60F9211242F933F9385
:100AD0008F939F93AF93BF938091120290911302D3
:100AE000A0911402B09115023091110223E0230F5E
:100AF0002D3758F50196A11DB11D20931102809349
:100B0000120290931302A0931402B09315028091E5
:100B1000160290911702A0911802B0911902019645
:100B2000A11DB11D8093160290931702A093180285
:100B3000B0931902BF91AF919F918F913F912F91E7
:100B40000F900FBE0F901F90189526E8230F029666
:100B5000A11DB11DD2CF1F920F920FB60F9211247B
:100B60002F933F934F935F936F937F938F939F93B5
:100B7000AF93BF93EF93FF93E0910201F0910301D4
:100B80000995FF91EF91BF91AF919F918F917F91C7
:100B90006F915F914F913F912F910F900FBE0F90EA
:100BA0001F9018951F920F920FB60F9211242F933A
:100BB0003F934F935F936F937F938F939F93AF93E5
:100BC000BF93EF93FF93E0910001F091010109952C
:100BD000FF91EF91BF91AF919F918F917F916F9115
:100BE0005F914F913F912F910F900FBE0F901F90EB
:100BF00018951F920F920FB60F9211242F933F93C7
:100C00004F935F936F937F938F939F93AF93BF9314
:100C1000EF93FF938AE192E00E94E001FF91EF9150
:100C2000BF91AF919F918F917F916F915F914F9104
:100C30003F912F910F900FBE0F901F9018951F920C
:100C40000F920FB60F9211242F938F939F93EF93D0
:100C5000FF93E0912A02F0912B028081E091300213
:100C6000F091310282FD1BC09081809133028F5F31
:100C70008F7320913402821741F0E0913302F0E04B
:100C8000E65EFD4F958F80933302FF91EF919F9128
:100C90008F912F910F900FBE0F901F90189580810C
:100CA000F4CF1F920F920FB60F9211242F933F9300
:100CB0004F935F936F937F938F939F93AF93BF9364
:100CC000EF93FF93E0910802F0910902309749F009
:100CD000A685B7858585968D91FF14C09C91892343
:100CE000A1F4FF91EF91BF91AF919F918F917F916F
:100CF0006F915F914F913F912F910F900FBE0F9089
:100D00001F9018959C91892361F7A389B4899C91C0
:100D10008589809589238C93868997890197F1F736
:100D2000608D718DA685B785558538E020E0CB01B3
:100D30000197F1F7822F90E095958795282F4C9198
:100D4000452309F02068315091F7868D81FD20956B
:100D50008091070290E001968F73992730910602E7
:100D6000381799F0A0910702B0E0AA53BE4F2C9318
:100D700080930702828D938D0197F1F7A389B4893F
:100D80008C919589892B8C93ACCF868D8160868FD1
:100D9000F1CFCF92DF92EF92FF920F931F93E82F44
:100DA000F92F05C0015011092109310961F1908124
:100DB00096239417B9F305C001501109210931098F
:100DC00011F1908196239413F7CFC12CD12CE12CF3
:100DD000F12C0AC08FEFC81AD80AE80AF80A0C15D5
:100DE0001D052E053F0579F080818623841791F338
:100DF0006C2D7D2D8E2D9F2D1F910F91FF90EF90CB
:100E0000DF90CF90089560E070E080E090E01F9167
:100E10000F91FF90EF90DF90CF900895CF92DF92E7
:100E2000EF92FF9210921D0210921C0298EEC92EB2
:100E300093E0D92EE12CF12CC0921E02D0921F0219
:100E4000E0922002F09221028EE091E090931B024A
:100E500080931A0285EC90E09093270280932602FB
:100E600084EC90E0909329028093280280EC90E03B
:100E700090932B0280932A0281EC90E090932D02B4
:100E800080932C0282EC90E090932F0280932E02AC
:100E900086EC90E0909331028093300210923302FE
:100EA00010923402109235021092360262E671E01E
:100EB0008EEE92E00E9450051092D2021092D10262
:100EC000C092D302D092D402E092D502F092D60220
:100ED0008CE291E09093D0028093CF021092E602D0
:100EE0001092E5021092E8021092E7021092EA02D4
:100EF0001092E9021092EC021092EB026091ED0266
:100F00006E7F6D7F6093ED026695617081E068276A
:100F10008AE00E948D0061E08AE00E94D900E8EB3F
:100F2000F0E0E491E093DF02E4EAF0E0E491F0E045
:100F3000EE0FFF1FE057FF4F859194919093E102D0
:100F40008093E00260E089E00E94D9008091ED0288
:100F500081FD04C061E089E00E948D0089E08093FA
:100F6000DB02E7EBF0E0E491E093DC02E3EAF0E09F
:100F7000E491F0E0EE0FFF1FEA57FF4F8591949147
:100F80009093DE028093DD021092BA021092B902B1
:100F900080E291E09093B8028093B70288E080935A
:100FA000BB028FEF8093BC0287E08093BD0286E096
:100FB0008093BE0285E08093BF0284E08093C002EC
:100FC00083E08093C1021092C2021092C302109279
:100FD000C4021092C5021092C60281E0FF90EF9009
:100FE000DF90CF900C94BB03CF93DF93CDB7DEB7E8
:100FF000A8970FB6F894DEBF0FBECDBF789484B526
:10100000826084BD84B5816084BD85B5826085BD04
:1010100085B5816085BD80916E00816080936E0092
:101020001092810080918100826080938100809184
:101030008100816080938100809180008160809335
:1010400080008091B10084608093B1008091B000F5
:1010500081608093B00080917A00846080937A00F0
:1010600080917A00826080937A0080917A0081601A
:1010700080937A0080917A00806880937A00109241
:10108000C100E0912A02F0912B0282E08083E0917E
:101090002602F09127021082E0912802F0912902A5
:1010A0008FEC808310923202E0912E02F0912F0299
:1010B00086E08083E0912C02F0912D028081806196
:1010C0008083E0912C02F0912D02808188608083E2
:1010D000E0912C02F0912D02808180688083E09164
:1010E0002C02F0912D0280818F7D80831092EA0284
:1010F0001092E9021092E8021092E7021092E602C2
:101100001092E5028DE991E09093EC028093EB025E
:101110009091DB02963108F047C02DEB30E0309320
:10112000E6022093E5022BE931E03093E8022093B8
:10113000E7022CE231E03093EA022093E9022091A9
:10114000680084E0983048F031E09E3008F430E0E8
:1011500081E001C0880F3A95EAF7822B80936800FE
:101160002DE630E0983050F02BE630E09E3030F045
:101170002CE630E0963110F030E020E03093E302CE
:101180002093E202292F30E0983008F0FEC181E080
:1011900001C0880F9A95EAF78093E4028091EB02F0
:1011A0009091EC020197F1F78091E9029091EA02A7
:1011B000892B49F1E0910802F091090282E0EF3CAD
:1011C000F80709F1309739F0A389B4899C91858992
:1011D000809589238C938091ED028E7F8093ED0220
:1011E00010920702109206028FEC92E0909309028F
:1011F00080930802E091E202F091E30280819091F5
:10120000E402892B808361E08CE00E94D90060E0D9
:101210008BE00E94D90082E00E94BB0380E00E9424
:10122000610466E671E087EB92E00E94850481E04C
:101230000E94610466E771E087EB92E00E948504FA
:1012400064EF71E080E090E00E942F0184E994E077
:101250009093010180930001809169008C7F8260EE
:1012600080936900E89A43E0E42EF12C53E2C52E06
:10127000D12C69EB262E60E0362E7AE0872E912C59
:10128000A12CB12C60E08CE00E948D00C701019779
:10129000F1F761E08CE00E948D00C6010197F1F743
:1012A00060E08CE00E948D00F1016491E5EAF0E0DD
:1012B0008491E82FF0E0EE0FFF1FEA57FF4F859172
:1012C000949100E412E42FE030E0462F0E94C9061A
:1012D000611571058105910529F06F5F7F4F8F4F73
:1012E0009F4F9F7095958795779567950E94B10B55
:1012F00028E23EE74CE05DE30E94EC0B20E030E0AA
:1013000040E85FE30E94E20C0E944E0D60930B02E6
:1013100070930C0280930D0290930E0265E871E0C9
:101320008AE192E00E94850440900B0250900C02EA
:1013300060900D0270900E0277FE34C16DE28AE17A
:1013400092E00E94020222273327A90124193509BD
:101350004609570919A2CE0181963C01CA01B9017B
:10136000A50194010E94840D605DF30162933F0129
:10137000211531054105510589F76114710429F0E2
:10138000B3018AE192E00E94850460E971E08AE19C
:1013900092E00E94850460E671E08AE192E00E949A
:1013A000850468EE73E080E090E00E942F01809158
:1013B0001002882309F40CC164E971E0CE010196A2
:1013C0000E94500560E0CE0101960E946F04CE019C
:1013D00001960E94A40465EA71E0CE0101960E9484
:1013E000500561E0CE0101960E946F04CE01019686
:1013F0000E94A40481E080930F0260ED77E080E01A
:1014000090E00E942F0180910B0290910C02A0911C
:101410000D02B0910E024997A105B1050CF0DBC099
:1014200065EB71E0CE0101960E94500560E0CE01AF
:1014300001960E946F04CE0101960E94A40465EA01
:1014400071E0CE0101960E94500561E0CE01019647
:101450000E946F04CE0101960E94A40468EE73E01E
:1014600080E090E00E942F0181E080930A02809149
:101470000F02811115C080910A02811111C00E94D2
:10148000610466E671E087EB92E00E94850481E0EA
:101490000E94610466E771E087EB92E00E94850498
:1014A00080911002882309F499C041E050E064E67D
:1014B00071E08EEE92E00E94D404109210026091CE
:1014C0000B0270910C0280910D0290910E021CA2F1
:1014D0001BA21EA21DA218A61FA22AE0AE014F5FEA
:1014E0005F4F0E94540BBE016F5F7F4FCE0183960A
:1014F0000E9446051A8219821C821B821E821D824E
:101500006BA17CA16115710531F04FA158A5CE01E9
:1015100001960E941B05CE0101960E940005FC0168
:1015200044815581608171818EEE92E00E94D404E5
:10153000CE0101960E94A404CE0183960E94A404C9
:101540004091F2025091F3026091EE027091EF022D
:101550008FEC92E00E94620160E671E08FEC92E015
:101560000E94850462E671E08EEE92E00E944605DC
:1015700080E090E0892B09F485CE0E94CC0188237D
:1015800009F480CE0E9400007DCE9E3040F42850A9
:10159000310981E001C0880F2A95EAF7FDCD2E5070
:1015A0003109F7CFA301920119A2CE0181963C0126
:1015B000CA01B901A50194010E94840D605DF30187
:1015C00062933F01211531054105510589F7D5CEBB
:1015D00010920F0218CF10920A0249CF1CA21BA230
:1015E0001EA21DA218A61FA24AE0BE016F5F7F4F78
:1015F00090E080E00E94490BBE016F5F7F4FCE01FB
:1016000083960E9446051A8219821C821B821E82C2
:101610001D826BA17CA16115710531F04FA158A508
:10162000CE0101960E941B05CE0101960E94000585
:10163000FC0144815581608171818EEE92E00E94AF
:10164000D404CE0101960E94A404CE0183960E9488
:10165000A40435CF8CE291E09093D0028093CF0226
:1016600080910802909109028F5C924071F4E091A0
:10167000E202F091E30290818091E4028095892357
:10168000808310920902109208028EEE92E00C9470
:10169000A404BB274A3031F4992322F4BDE290958B
:1016A00081959F4F0C94860BBB272A3051F49923C8
:1016B00042F4BDE290958095709561957F4F8F4F74
:1016C0009F4F0C94640BBB27FA01A62F621771057C
:1016D00081059105330B30FB66F0AA27660F771F53
:1016E000881F991FAA1FA21710F0A21B63953850DC
:1016F000A9F7A05DAA3308F0A95DA19336F7B1114F
:10170000B1931082CA010C949F0BBB27FB01552794
:10171000AA27880F991FAA1FA41710F0A41B83954E
:101720005051B9F7A05DAA3308F0A95DA1930097C5
:1017300079F7B111B1931192CB010C949F0BDC019D
:10174000FC01672F71917723E1F7329704C07C91F8
:101750006D9370836291AE17BF07C8F30895E89444
:1017600009C097FB3EF490958095709561957F4FE9
:101770008F4F9F4F9923A9F0F92F96E9BB27939597
:10178000F695879577956795B795F111F8CFFAF4A7
:10179000BB0F11F460FF1BC06F5F7F4F8F4F9F4FD8
:1017A00016C0882311F096E911C0772321F09EE836
:1017B000872F762F05C0662371F096E8862F70E09C
:1017C00060E02AF09A95660F771F881FDAF7880F76
:1017D0009695879597F908950E94FF0B0C94700CCD
:1017E0000E94620C38F00E94690C20F0952311F0E1
:1017F0000C94590C0C945F0C11240C94A40C0E94B2
:10180000810C70F3959FC1F3950F50E0551F629FB7
:10181000F001729FBB27F00DB11D639FAA27F00D49
:10182000B11DAA1F649F6627B00DA11D661F829F70
:101830002227B00DA11D621F739FB00DA11D621F55
:10184000839FA00D611D221F749F3327A00D611D72
:10185000231F849F600D211D822F762F6A2F112454
:101860009F5750409AF0F1F088234AF0EE0FFF1F87
:10187000BB1F661F771F881F91505040A9F79E3FDE
:10188000510580F00C94590C0C94A40C5F3FE4F3C8
:10189000983ED4F3869577956795B795F795E79534
:1018A0009F5FC1F7FE2B880F911D9695879597F93D
:1018B000089597F99F6780E870E060E008959FEFD2
:1018C00080EC089500240A941616170618060906D7
:1018D000089500240A9412161306140605060895A6
:1018E000092E0394000C11F4882352F0BB0F40F42E
:1018F000BF2B11F460FF04C06F5F7F4F8F4F9F4F6E
:10190000089557FD9058440F551F59F05F3F71F0EF
:101910004795880F97FB991F61F09F3F79F0879556
:101920000895121613061406551FF2CF4695F1DFDF
:1019300008C0161617061806991FF1CF869571056F
:10194000610508940895E894BB2766277727CB01A3
:1019500097F908952F923F924F925F926F927F92E4
:101960008F929F92AF92BF92CF92DF92EF92FF92AF
:101970000F931F93CF93DF93CDB7DEB7CA1BDB0B5B
:101980000FB6F894DEBF0FBECDBF09942A88398800
:1019900048885F846E847D848C849B84AA84B98407
:1019A000C884DF80EE80FD800C811B81AA81B98113
:1019B000CE0FD11D0FB6F894DEBF0FBECDBFED0127
:1019C00008955058BB27AA270E94F90C0C94700C5C
:1019D0000E94620C38F00E94690C20F039F49F3F9D
:1019E00019F426F40C945F0C0EF4E095E7FB0C94CC
:1019F000590CE92F0E94810C58F3BA17620773073C
:101A00008407950720F079F4A6F50C94A30C0EF446
:101A1000E0950B2EBA2FA02D0B01B90190010C01FE
:101A2000CA01A0011124FF27591B99F0593F50F416
:101A3000503E68F11A16F040A22F232F342F44276E
:101A4000585FF3CF469537952795A795F040539566
:101A5000C9F77EF41F16BA0B620B730B840BBAF036
:101A60009150A1F0FF0FBB1F661F771F881FC2F7A1
:101A70000EC0BA0F621F731F841F48F487957795B5
:101A80006795B795F7959E3F08F0B0CF9395880F6F
:101A900008F09927EE0F9795879508950E94550DA8
:101AA0006894B1110C94A40C08950E94890C88F0DC
:101AB0009F5798F0B92F9927B751B0F0E1F0660F12
:101AC000771F881F991F1AF0BA95C9F714C0B13053
:101AD00091F00E94A30CB1E008950C94A30C672F21
:101AE000782F8827B85F39F0B93FCCF38695779582
:101AF0006795B395D9F73EF490958095709561956B
:101B00007F4F8F4F9F4F0895A1E21A2EAA1BBB1B38
:101B1000FD010DC0AA1FBB1FEE1FFF1FA217B307B9
:101B2000E407F50720F0A21BB30BE40BF50B661FCF
:101B3000771F881F991F1A9469F760957095809593
:101B400090959B01AC01BD01CF010895EE0FFF1FE1
:101B50000590F491E02D09940F931F93CF93DF9399
:101B60008230910510F482E090E0E091F602F0916D
:101B7000F70230E020E0B0E0A0E0309799F42115C2
:101B8000310509F44AC0281B390B24303105D8F53A
:101B90008A819B816115710589F1FB0193838283A1
:101BA000FE0111C0408151810281138148175907FC
:101BB000E0F04817590799F4109761F012960C93CA
:101BC000129713961C933296CF01DF91CF911F91FC
:101BD0000F9108950093F6021093F702F4CF2115A8
:101BE000310551F04217530738F0A901DB019A0182
:101BF000BD01DF01F801C1CFEF01F9CF9093F702EA
:101C00008093F602CDCFFE01E20FF31F81939193F3
:101C10002250310939832883D7CF2091F4023091A3
:101C2000F502232B41F420910601309107013093F6
:101C3000F5022093F4022091040130910501211551
:101C4000310541F42DB73EB740910801509109018B
:101C5000241B350BE091F402F091F502E217F30733
:101C6000A0F42E1B3F0B2817390778F0AC014E5F0C
:101C70005F4F2417350748F04E0F5F1F5093F50252
:101C80004093F402819391939FCFF0E0E0E09CCFEA
:101C9000CF93DF930097E9F0FC0132971382128211
:101CA000A091F602B091F702ED0130E020E010972C
:101CB000A1F420813181820F931F2091F402309191
:101CC000F5022817390709F061C0F093F502E09397
:101CD000F402DF91CF910895EA01CE17DF07E8F50E
:101CE0004A815B819E0141155105B1F7E901FB83F2
:101CF000EA8349915991C40FD51FEC17FD0761F490
:101D0000808191810296840F951FE90199838883D0
:101D1000828193819B838A83F0E0E0E012968D912B
:101D20009C9113970097B9F52D913C911197CD0196
:101D30000296820F931F2091F4023091F50228172A
:101D4000390739F6309751F51092F7021092F602E2
:101D5000B093F502A093F402BCCFD383C283408139
:101D60005181840F951FC817D90761F44E5F5F4FEB
:101D700088819981480F591F518340838A819B81B3
:101D8000938382832115310509F0B0CFF093F702D8
:101D9000E093F6029ECFFD01DC01C0CF13821282D8
:101DA000D7CFB0E0A0E0E7EDFEE00C94AC0C8C01E6
:101DB000009751F4CB010E94AC0D8C01C801CDB746
:101DC000DEB7E0E10C94C80CFC01E60FF71F9C01A4
:101DD00022503109E217F30708F49DC0D901CD91D3
:101DE000DC911197C617D70798F0C530D10530F3AD
:101DF000CE0104978617970708F3C61BD70B2297C7
:101E0000C193D1936D937C93CF010E94480ED6CF9E
:101E10005B01AC1ABD0A4C018C0E9D1EA091F6020E
:101E2000B091F702512C412CF12CE12C109731F597
:101E30008091F4029091F5028815990509F05CC033
:101E40004616570608F058C080910401909105018C
:101E5000009741F48DB79EB7409108015091090158
:101E6000841B950BE817F90708F055C0F093F502AD
:101E7000E093F402F90171836083A0CF8D919C916E
:101E8000119712966C90129713967C901397A81541
:101E9000B90559F56C0142E0C40ED11CCA14DB042B
:101EA00020F1AC014A195B09DA011296159780F00E
:101EB0006282738251834083D9016D937C93E114D4
:101EC000F10471F0D7011396FC93EE93129776CF3D
:101ED00022968C0F9D1FF90191838083F301EFCF30
:101EE000F093F702E093F60269CF4816590608F41A
:101EF0002C017D01D3019ACFCB010E94AC0D7C0156
:101F0000009749F0AE01B8010E948E0FC8010E94EF
:101F1000480E870153CF10E000E050CFFB01DC01F9
:101F200002C001900D9241505040D8F70895FB0136
:101F3000DC0101900D920020E1F7089510E0C2E667
:101F4000D0E004C0FE010E94A60D2196C336D10741
:061F5000C9F7F894FFCF71
:101F5600610161010000F802800000000000020239
:101F660062018F014F02C0019E01B2010000000014
:101F76007F0462011C031B0300000000880262014B
:101F86001C038702E402FA026F022D2D2D2D2D2D42
:101F96002D2D2D2D2D2D2D2D2D2D2D2D2D2D2D2D6B
:101FA6002D2D2D2D2D2D2D2D2D2D2D2D2D2D2D0088
:101FB6000D0A007878002D4655454C205452414371
:101FC6004B494E472D00203D4D4F4E49544F522010
:101FD6005359533D0044697374616E63653A20003A
:101FE60020636D002020202054414D504552494E1B
:101FF60047202020002020203D3D5741524E494E8B
:10200600473D3D20002020204C4F57204C4556454B
:062016004C2020202000F8
:00000001FF
